:020000040800F2
:100000006004002001010008110E00088D0D000899
:100010000D0E00086D010008310E00080000000000
:10002000000000000000000000000000190E0008A1
:100030007101000800000000150E00081D0E0008E8
:100040001B0100081B0100081B0100081B01000820
:100050001B0100081B0100081B0100081B01000810
:100060001B0100081B0100081B0100081B01000800
:100070001B0100081B0100081B0100081B010008F0
:100080001B0100081B0100081B0100081B010008E0
:100090001B0100081B0100081B0100081B010008D0
:1000A0001B0100081B0100081B0100081B010008C0
:1000B0001B0100081B010008250E00081B01000899
:1000C0001B0100081B0100081B0100081B010008A0
:1000D0001B0100081B0100081B0100081B01000890
:1000E0001B0100081B0100081B010008DFF80CD0F1
:1000F00000F02AF800480047350E00086004002090
:100100000648804706480047FEE7FEE7FEE7FEE7B1
:10011000FEE7FEE7FEE7FEE7FEE7FEE7210E00084A
:10012000ED000008D2B201E000F8012B491EFBD21D
:1001300070470022F6E710B513460A4604461946F2
:10014000FFF7F0FF204610BD064C074D06E0E068C3
:1001500040F0010394E8070098471034AC42F6D30E
:10016000FFF7C8FFF00E0008100F0008FEE70000C0
:10017000704700002DE9F04F82B00E68002E00F0AD
:10018000F68041F20042C4F20102042340F2004E24
:10019000904208BF03234FF6FF7CC4F2010E009388
:1001A00000240123C1F2100C4FF0000A4FF00009A7
:1001B00043E0012704F00C030F229A402BEA0202CD
:1001C00007FA03F34FEA9A051A4346F825204E68CA
:1001D00040F20C45F202DEF8082054BF22EA080281
:1001E00042EA0802C4F20105CEF808202A68B302E8
:1001F00054BF22EA080242EA08022A60B303DEF88A
:10020000042054BF22EA080242EA0802F303CEF8AF
:100210000420DEF800204FF0010354BF22EA080258
:1002200042EA0802CEF800200E680AF1010A36FA06
:100230000AF204F1040400F09A8003FA0AFB16EAB9
:100240000B08F1D04E68664510DC122E50D8DFE85E
:1002500006F0330A41454F4F4F4F4F4F4F4F4F4FCF
:100260004F4F4F484C00D1F80C9041E04FF6FF72D1
:10027000C1F2210296420FDC0022C1F21102964225
:100280001AD00022C1F21202964215D00022C1F209
:100290002102964210D02BE00022C1F222029642A7
:1002A0000AD00022C1F23102964205D00022C1F2EA
:1002B000320296421CD100BF8A6842B1012A14BFA3
:1002C000C0F814B0C0F810B04FF0080910E04FF0BB
:1002D00004090DE0CA6802F1080909E04FF00009BD
:1002E00006E0CA6802F1040902E0CA6802F10C09DA
:1002F00022460646B8F5807F24BF203A0436376888
:100300000F25954027EA050509FA02F22A433260D3
:10031000CA79D2067FF588AF41F21803C4F202030E
:100320001A68AEF57E7642F001021A601A6802F091
:1003300001020192019A2AF0030256F802B040F637
:100340000002C4F2010290420FD040F60042C4F213
:10035000010290423FF42DAF41F20002C4F20102CB
:10036000009F904208BF022724E7002722E702B03F
:10037000BDE8F08F002A08BF090401617047000042
:1003800040F25800C2F200000068704740F20400DA
:1003900040F25801C2F20000C2F2000100780A687F
:1003A000104408607047000080B542F20000C4F2BB
:1003B0000200016841F010010160032000F0BCF868
:1003C0000F2000F005F800F059F8002080BD000073
:1003D000B0B586B041F21C01C4F202010A680446BD
:1003E00042F004020A60096801A801F004010191C9
:1003F0000199694600F08EF9049D002D18BF012572
:1004000000F0AAF94DF68361A840C4F21B31A0FBAD
:1004100001014FF0FF3000EB914140F2100040F637
:100420000002C2F20000C4F2000240F2E7330025ED
:10043000C0E90021C0E902530561856100F03CFB81
:100440000546C0B940F21000C2F2000000F0A2FB65
:10045000054680B91E2000F033F80F2C0AD81E2064
:100460002146002200F03CF840F20800C2F20000F1
:10047000046000E00125284606B0B0BD82B041F21C
:100480001800C4F202000168022241F0010101607B
:10049000016801F0010101910199416841F0805129
:1004A0004160406800F08050009000980420C4F241
:1004B0000100016862F31A61016002B07047000038
:1004C000002848BF704700F01F01012202FA01F125
:1004D0004EF200124009CEF2000242F8201070479E
:1004E00010B54EF60C5CCEF2000CDCF80030C3F315
:1004F000022E8EF00704042C28BF0424BEF103034F
:100500004FF0FF3E0EFA04F438BF0023A143994098
:100510000EFA03F39A43114300F1604200F00F0317
:10052000090102F56442043B6344002848BF03F11B
:100530000C02117010BD00004EF60C51CEF20001FD
:100540000A684FF6FF031A4060F30A2242F0806007
:1005500040F0FD70086070472DE9F04381B000283D
:1005600000F0858042F20008C4F202080446D8F880
:1005700000000D4600F0070088420CD2D8F80000B9
:1005800020F007002843C8F80000D8F8000000F069
:100590000700A8426BD1206841F204098107C4F228
:1005A000020917D5410705D5D9F8001041F4E061DB
:1005B000C9F80010010705D5D9F8001041F46051C1
:1005C000C9F80010D9F80010A26821F0F001114319
:1005D000C9F80010C00741D1D8F8000000F00700AA
:1005E000A8420CD9D8F8000020F007002843C8F82A
:1005F0000000D8F8000000F00700A84237D12068BA
:10060000410707D5D9F80010E26821F4E0611143F1
:10061000C9F80010000708D5D9F80000216920F4B6
:10062000605040EAC100C9F80000D9F8002002F08B
:100630000C00082841F20020C0F27A004ED140F6AA
:10064000DE63C2F38341C0F60003595CD20339D4A0
:1006500040F60010C0F23D0048433FE060680228C9
:1006600009D0012829D159F8041C890307D4012095
:1006700001B0BDE8F08359F8041C8901F7D5D9F819
:10068000001021F003010843C9F80000FFF778FECD
:10069000064641F2883700BFD9F80000616800F0D3
:1006A0000C00B0EB810F97D0FFF76AFE801BB842B9
:1006B000F2D9032001B0BDE8F08359F8041C890782
:1006C000D5D5DCE7D9F8002040F6DC63C2F3404220
:1006D000C0F600039A5C4843B0FBF2F0D9F8001072
:1006E00040F6C462C1F30311C0F60002515C40F24F
:1006F000000220FA01F140F20800C2F20000006896
:10070000C2F200021160FFF763FE002001B0BDE8F5
:10071000F08300000F22026041F20402C4F20202E0
:10072000136803F003034360136803F0F00383606E
:10073000136803F4E063C36012684FF4E06303EAF4
:10074000D202026142F20000C4F20200006800F02E
:10075000070008607047000040F2000041F2040109
:10076000C2F20000C4F202010068096840F6D462D7
:10077000C1F30221C0F60002515CC840704700007E
:100780002DE9F04182B0002800F0D78004460078BF
:1007900041F20006C007C4F2020644D0706800F0BF
:1007A0000C00042817D0706800F00C00082802D153
:1007B0007068C0030FD465682DB1B5F5A02F10D0B7
:1007C000B5F5803F11D0306820F48030306030685B
:1007D00020F480200CE03068800324D5606810BBD2
:1007E000ABE0306840F480203060306840F4803006
:1007F0003060FFF7C5FD002D054611D0306880033D
:1008000011D4FFF7BDFD401B6428F7D916E100BFE6
:10081000FFF7B6FD401B64284FF0030000F28A800A
:1008200030688003F4D42078800718D5706810F001
:100830000C0F07D0706800F00C00082827D17068F2
:10084000C00324D43068800702D52069012874D100
:100850003068616920F0F80040EAC100306020781B
:1008600000074FD5A06940B30020C4F24220012107
:10087000C0F88014FFF784FD054600BF706A80074A
:100880002DD4FFF77DFD401B0228F7D9D6E0206963
:10089000002840F20000C4F2422000F0A6800121AE
:1008A0000160FFF76DFD054630688007D0D4FFF783
:1008B00067FD401B0228F7D9C0E00020C4F24220A7
:1008C0000021C0F88014FFF75BFD0546706A8007C1
:1008D00018D5FFF755FD401B0228F7D9AEE040F2CE
:1008E0000000C2F20000006844F6D351C1F2620178
:1008F000A0FB0101480A019000BF0198411E002899
:100900000191F9D1207840071BD4E5698DB1706859
:1009100000F00C00082846D1012D0ED07068216A25
:1009200000F480328A4208D1616A00F47010884273
:1009300003D1002002B0BDE8F081012002B0BDE883
:10094000F081F06910F0805808D1F06940F08050D3
:10095000F061F06900F080500090009847F20007C5
:10096000C4F200073868C0050FD4386840F48070BE
:100970003860FFF705FD05463868C00505D4FFF768
:10098000FFFC401B6428F7D958E0E5681DB1052D30
:100990003CD0012D3ED0306A20F001003062306A38
:1009A00020F0040039E00027C4F242270020386616
:1009B000FFF7E6FC022D05460CD100BF3068800130
:1009C00054D5FFF7DDFC401B02284FF00300F5D99A
:1009D000B0E700BF30688001ABD5FFF7D1FC401B0A
:1009E00002284FF00300F5D9A4E700210160FFF7CA
:1009F000C7FC0546306880077FF531AFFFF7C0FCC4
:100A0000401B02284FF00300F4D993E7306A40F00E
:100A100004003062306A40F001003062FFF7B0FC41
:100A2000002D054641F2883714D000BF306A800798
:100A300013D4FFF7A5FC401BB842F7D9032002B03E
:100A4000BDE8F081FFF79CFC401BB8424FF003006B
:100A50003FF670AF306A8007F4D4B8F1000F7FF42E
:100A600054AFF06920F08050F0614EE7206AB0F595
:100A7000803F05D17168A26821F400311143716093
:100A80007168626A21F47411114308437060012097
:100A90003866FFF775FC0446306880013FF549AFC2
:100AA000FFF76EFC001B02284FF00300F4D941E76A
:100AB0007047000070470000002804BF0120704705
:100AC00010B5044690F83D0028B9002084F83C0099
:100AD000204600F05DF8022084F83D00206840F2D6
:100AE000FF730268C4F2000342F6004C9842C4F25D
:100AF000010C05DCB0F1804F0AD040F2004103E068
:100B0000604505D040F60001C4F20001884203D1DF
:100B1000A16822F070020A43984205DCB0F1804FD0
:100B20000AD040F2004103E0604505D040F60001E4
:100B3000C4F20001884203D1216922F440720A43C1
:100B4000A36922F08001D4F804E0E268194360450B
:100B50000160C262C0F828E002D16169CCF83010AF
:100B600001214161002084F8461084F83E1084F889
:100B70003F1084F8401084F8411084F8421084F843
:100B8000431084F8441084F8451084F83D1010BDDB
:100B90007047000090F83D1001291CBF01207047EC
:100BA000022180F83D10006840F2FF72C168C4F273
:100BB0000002904241F00101C16005DCB0F1804FBC
:100BC0000ED040F2004107E042F60041C4F20101BC
:100BD000884205D040F60001C4F20001884206D1E7
:100BE000816801F00701062904BF002070470168F1
:100BF00041F00101016000207047000070470000D3
:100C000010B5044600680169890744BFC1685FEAFE
:100C100081713FD420680169490744BFC1685FEA18
:100C2000417143D420680169090744BFC1685FEA84
:100C3000017148D420680169C90644BFC1685FEAF0
:100C4000C1614CD420680169C9071CBFC1685FEA53
:100C5000C17151D120680169090644BFC1685FEACA
:100C6000016150D420680169490644BFC1685FEA48
:100C700041614FD421680869800646BFC8685FEAB1
:100C8000806010BD6FF0200220460A61BDE8104070
:100C9000FFF710BF6FF00201016101212177806928
:100CA00080073ED02046FFF7A9FF40E06FF0040127
:100CB000016102212177806910F4407F3AD02046FB
:100CC000FFF79CFF3CE06FF00801016104212177F0
:100CD000C069800737D02046FFF790FF39E06FF0FA
:100CE0001001016108212177C06910F4407F33D0E1
:100CF0002046FFF783FF35E06FF0010101612046D8
:100D000000F038F8A6E76FF0800101612046FFF798
:100D1000CFFEA7E76FF040010161204600F034F8F4
:100D2000A8E7204600F022F8204600F021F8002035
:100D300020776FE7204600F019F8204600F018F8F9
:100D4000002020776EE7204600F010F8204600F0E3
:100D50000FF8002020776DE7204600F007F82046C6
:100D600000F006F8002020776CE7000070470000D4
:100D700070470000006840F60001C4F2000188429C
:100D800018BF7047FFF702BB70470000FEE7000086
:100D900070B586B0002541F21800CDE90455CDE9C3
:100DA0000255C4F20200016841F2000441F0100152
:100DB00001600168C4F2010401F010010191019980
:100DC0000168002241F02001016001684FF40056E3
:100DD00001F0200101910199016841F004010160D5
:100DE00000684FF4005100F0040001900198204683
:100DF000FFF7C0FA0120CDE903050220059002A902
:100E000020460296FFF7B6F906B070BDFEE7000077
:100E1000FEE70000704700007047000070470000C8
:100E20007047000040F21000C2F20000FFF7E8BE79
:100E3000FEE7000090B0FFF7B7FA06AC2046282185
:100E4000FFF777F9012006900A904FF4E010002593
:100E50004FF4803102260F9020460595CDE90355C9
:100E6000CDE90155CDE90715CDE90D61FFF788FC06
:100E700018B1EFF3108072B6FEE70F20CDE901063E
:100E80004FF48060CDE9040501A802210395FFF726
:100E900063FB20B1EFF3108072B600BFFEE7FFF7EF
:100EA00077FF00BFFEE702E008C8121F08C1002A52
:100EB000FAD170477047002001E001C1121F002ADB
:100EC000FBD1704700000000000000000102030495
:100ED00006070809000000000102030401020203E2
:100EE0000405060708090A0B0C0D0E0F1010000070
:100EF000100F00080000002010000000A60E0008DF
:100F0000200F00081000002050040000B60E00085A
:100F10000024F400010000001000000000000000A8
:04000005080000ED02
:00000001FF
