:020000040800F2
:100000006004002001010008AD1500080915000872
:10001000A91500086D010008D517000800000000B0
:100020000000000000000000000000005D16000855
:1000300071010008000000001D160008611600088C
:100040001B0100081B0100081B0100081B01000820
:100050001B0100081B0100081B0100081B01000810
:100060001B0100081B0100081B0100081B01000800
:100070001B0100081B0100081B0100081B010008F0
:100080001B0100081B0100081B0100081B010008E0
:100090001B0100081B0100081B0100081B010008D0
:1000A0001B0100081B0100081B0100081B010008C0
:1000B0001B0100081B010008D51600081B010008E1
:1000C0001B0100081B0100081B0100081B010008A0
:1000D0001B0100081B0100081B0100081B01000890
:1000E0001B0100081B0100081B010008DFF80CD0F1
:1000F00000F02AF800480047991800086004002022
:100100000648804706480047FEE7FEE7FEE7FEE7B1
:10011000FEE7FEE7FEE7FEE7FEE7FEE7D116000892
:10012000ED000008D2B201E000F8012B491EFBD21D
:1001300070470022F6E710B513460A4604461946F2
:10014000FFF7F0FF204610BD064C074D06E0E068C3
:1001500040F0010394E8070098471034AC42F6D30E
:10016000FFF7C8FFF818000818190008FFE7FEE7B6
:100170007047000081B0EFF3108072B60090FFE787
:10018000FEE7000090B00F900E9100200D900990B6
:10019000FFE70E9800680D99C840002800F07F81A5
:1001A000FFE70D99012088400C900E9800680C998B
:1001B00008400B900B980C99884240F06C81FFE747
:1001C0000E9840680590002851D0FFE70598012857
:1001D0003AD0FFE7059802283FD0FFE705980328AB
:1001E0005FD0FFE70598112832D0FFE70598122865
:1001F00038D0FFE705980021C1F21101884236D0BE
:10020000FFE705980021C1F2120188422FD0FFE7D5
:1002100005980021C1F22101884228D0FFE7059806
:100220000021C1F22201884221D0FFE70598002178
:10023000C1F2310188421AD0FFE705980021C1F2CE
:100240003201884213D02FE00E98C06809902CE04C
:100250000E98C0680430099027E00E98C0680830F6
:10026000099022E00E98C0680C3009901DE00E98AD
:10027000806818B9FFE70420099011E00E988068A3
:10028000012806D1FFE7082009900C980F99086112
:1002900005E0082009900C980F994861FFE7FFE7F7
:1002A00003E00020099000E0FFE70B98FF2803D847
:1002B000FFE70F98049003E00F9804300490FFE7E5
:1002C000049808900B98FF2804D8FFE70D98800049
:1002D000039006E00D996FF01F0000EB8100039082
:1002E000FFE70398079008980068079A0F2191404C
:1002F0008843099991400843089908600E98C0798D
:10030000C006002840F1C680FFE7FFE741F2180071
:10031000C4F20200016841F001010160006800F0D0
:10032000010006900698FFE70D9820F003000821D1
:10033000C4F2010140580A900D9800F003008100BA
:100340000F2000FA01F10A9888430A900F9840F6AE
:100350000001C4F20101884203D1FFE700200290AE
:1003600026E00F9840F60041C4F20101884203D113
:10037000FFE70120019018E00F9841F20001C4F25C
:100380000101884203D1FFE7022000900AE00F99A3
:1003900041F20042C4F201020420914208BF03204E
:1003A0000090FFE700980190FFE701980290FFE7B7
:1003B00002980D9901F00301890000FA01F10A98F1
:1003C00008430A900A980D9921F003010822C4F20B
:1003D000010288500E988079C006002809D5FFE7F1
:1003E0000B9A40F20841C4F201010868104308600A
:1003F00008E00B9A40F20841C4F2010108689043FA
:100400000860FFE70E9880798006002809D5FFE78D
:100410000B9A40F20C41C4F20101086810430860D5
:1004200008E00B9A40F20C41C4F2010108689043C5
:100430000860FFE70E9880798007002809D5FFE75C
:100440000B9A40F20441C4F20101086810430860AD
:1004500008E00B9A40F20441C4F20101086890439D
:100460000860FFE70E988079C00748B1FFE70B9A54
:1004700040F20041C4F2010108681043086008E03E
:100480000B9A40F20041C4F20101086890430860F1
:10049000FFE7FFE7FFE70D9801300D9079E610B018
:1004A0007047000082B00190ADF802108DF8012075
:1004B0009DF8010028B1FFE7BDF80200019908612D
:1004C00005E0BDF80200000401990861FFE702B0F1
:1004D0007047000040F25800C2F200000068704708
:1004E00040F20400C2F20000027840F25801C2F269
:1004F00000010868104408607047000080B542F2AF
:100500000001C4F20201086840F0100008600320F6
:1005100000F0D6F80F2000F005F800F07BF800207E
:1005200080BD000080B58CB00B900020049003903B
:100530008DF80700FFE741F21C00C4F202000168D9
:1005400041F004010160006800F004000090009890
:10055000FFE706A802A900F0E7F9099804900498BB
:1005600020B9FFE700F010FA059004E000F00CFA63
:1005700040000590FFE705984DF68361C4F21B31FA
:10058000A0FB01014FF0FF3000EB9140039040F2DF
:100590001000C2F2000040F60001C4F20001016048
:1005A00040F2E731C160039941600021016181603F
:1005B000816100F09FFD8DF807009DF8070028BBC2
:1005C000FFE740F21000C2F2000000F0E5FD8DF8F8
:1005D00007009DF80700C0B9FFE71E2000F04CF8A7
:1005E0000B980F280CD8FFE70B991E20002200F073
:1005F0004DF80B9840F20801C2F20001086003E0D8
:1006000001208DF80700FFE7FFE7FFE79DF80700EF
:100610000CB080BD83B0FFE741F21800C4F20200C5
:10062000016841F001010160006800F001000290E2
:100630000298FFE7FFE741F21C00C4F202000168E4
:1006400041F080510160006800F0805001900198F5
:10065000FFE7FFE70421C4F2010108680090009859
:1006600020F0E0600090009840F00070009000984A
:100670000860FFE703B0704780B582B08DF80700CF
:100680009DF9070001F0A8F802B080BD80B586B0E2
:100690008DF81700049103920020029001F0B4F845
:1006A00002909DF91700019002980499039A00F0B6
:1006B0007FFF0146019801F0AFF806B080BD000051
:1006C00080B582B00190019801F0C8F802B080BDF9
:1006D00080B584B002900191029820B9FFE7012013
:1006E0008DF80F001BE1019842F20001C4F20201F3
:1006F000096801F00701884216D9FFE742F20000BD
:10070000C4F20200016821F00701019A114301605F
:10071000006800F007000199884204D0FFE701203B
:100720008DF80F00FBE0FFE70298007880070028B3
:100730002AD5FFE7029800784007002809D5FFE78F
:1007400041F20401C4F20201086840F4E06008606C
:10075000FFE7029800780007002809D5FFE741F27B
:100760000401C4F20201086840F460500860FFE729
:1007700041F20401C4F20201086820F0F000029A7C
:10078000926810430860FFE702980078C0070028CD
:1007900060D0FFE70298406801280ED1FFE741F2E0
:1007A0000000C4F2020000688003002804D4FFE7C0
:1007B00001208DF80F00B2E021E002984068022885
:1007C0000ED1FFE741F20000C4F202000068800190
:1007D000002804D4FFE701208DF80F009FE00DE012
:1007E00041F20000C4F2020000688007002804D42F
:1007F000FFE701208DF80F0091E0FFE7FFE741F2EE
:100800000401C4F20201086820F00300029A526851
:1008100010430860FFF75EFE0090FFE741F204001E
:10082000C4F20200006800F00C0002994968B0EBC5
:10083000810F0ED0FFE7FFF74DFE0099401A41F2FD
:100840008931884204D3FFE703208DF80F0066E06A
:10085000E4E7FFE7019842F20001C4F202010968EF
:1008600001F00701884216D2FFE742F20000C4F20D
:100870000200016821F00701019A1143016000683C
:1008800000F007000199884204D0FFE701208DF8AD
:100890000F0044E0FFE702980078400700280CD5DD
:1008A000FFE741F20401C4F20201086820F4E060AD
:1008B000029AD26810430860FFE7029800780007A8
:1008C00000280DD5FFE741F20401C4F202010868D7
:1008D00020F46050029A126940EAC2000860FFE703
:1008E00000F064F841F20401C4F202010968C9B2DF
:1008F0000A0941F6CE01C0F60001895CC84040F209
:100900000001C2F20001086040F20800C2F20000DB
:100910000068FFF707FE00208DF80F00FFE79DF845
:100920000F0004B080BD000082B0019000910199D9
:100930000F20086041F20400C4F20200016801F0D7
:100940000301019A5160016801F0F001019A916080
:10095000016801F4E061019AD160006800F4605020
:10096000C0080199086142F20000C4F20200006868
:1009700000F007000099086002B0704740F20000E4
:10098000C2F200000068704780B5FFF7F7FF41F240
:100990000401C4F202010968C1F3022241F6DE013A
:1009A000C0F60001895CC84080BD000086B0002010
:1009B0000590049003900290019041F20400C4F26B
:1009C000020000680590059800F00C0001460091B7
:1009D00000283FD0FFE70098042804D0FFE70098E4
:1009E000082806D037E041F20020C0F27A000190DA
:1009F00037E00598C0F3834141F6E600C0F60000F9
:100A0000405C02909DF81600C007C0B1FFE741F2BC
:100A10000400C4F202000068C0F3404141F6F60051
:100A2000C0F60000405C0490029841F20021C0F240
:100A30007A0148430499B0FBF1F0039007E0029873
:100A400040F60011C0F23D0148430390FFE70398D0
:100A5000019006E0FFE741F20020C0F27A00019029
:100A6000FFE7019806B0704780B586B004900498FF
:100A700020B9FFE701208DF817002EE304980078D5
:100A8000C007002800F0AE80FFE741F20400C4F286
:100A90000200006800F00C00042813D0FFE741F2C8
:100AA0000400C4F20200006800F00C0008281BD10A
:100AB000FFE741F20400C4F202000068C00300280E
:100AC00012D5FFE741F20000C4F202000068800383
:100AD000002808D5FFE70498406820B9FFE7012007
:100AE0008DF81700F9E27CE0FFE704984068B0F564
:100AF000803F09D1FFE741F20001C4F2020108681A
:100B000040F48030086032E00498406868B9FFE73C
:100B100041F20001C4F20201086820F4803008604C
:100B2000086820F48020086020E004984068B0F550
:100B3000A02F0DD1FFE741F20001C4F202010868C5
:100B400040F480200860086840F4803008600CE0C1
:100B500041F20001C4F20201086820F4803008600C
:100B6000086820F480200860FFE7FFE7FFE7FFE761
:100B700004984068D0B1FFE7FFF7ACFC0390FFE7B3
:100B800041F20000C4F202000068800300280CD487
:100B9000FFE7FFF79FFC0399401A652804D3FFE79E
:100BA00003208DF8170098E2EAE719E0FFF792FCBE
:100BB0000390FFE741F20000C4F2020000688003E6
:100BC00000280CD5FFE7FFF785FC0399401A65283C
:100BD00004D3FFE703208DF817007EE2EAE7FFE782
:100BE000FFE7FFE7049800788007002840F18D8038
:100BF000FFE741F20400C4F20200006810F00C0F9D
:100C000013D0FFE741F20400C4F20200006800F0D4
:100C10000C00082829D1FFE741F20400C4F20200C9
:100C20000068C003002820D4FFE741F20000C4F2AE
:100C3000020000688007002809D5FFE704980069D2
:100C4000012804D0FFE701208DF8170045E241F2AA
:100C50000001C4F20201086820F0F800049A526909
:100C600040EAC2000860FFE74EE00498006958B30C
:100C7000FFE70021C4F2422101200860FFF72AFCAF
:100C80000390FFE741F20000C4F202000068800711
:100C900000280CD4FFE7FFF71DFC0399401A032836
:100CA00004D3FFE703208DF8170016E2EAE741F2CC
:100CB0000001C4F20201086820F0F800049A5269A9
:100CC00040EAC20008601EE00021C4F24221002078
:100CD0000860FFF7FFFB0390FFE741F20000C4F25A
:100CE00002000068800700280CD5FFE7FFF7F2FB41
:100CF0000399401A032804D3FFE703208DF8170057
:100D0000EBE1EAE7FFE7FFE7FFE704980078000779
:100D1000002848D5FFE70498806918B3FFE740F240
:100D20008041C4F2422101200860FFF7D3FB039009
:100D3000FFE741F22400C4F20200006880070028A7
:100D40000CD4FFE7FFF7C6FB0399401A032804D32E
:100D5000FFE703208DF81700BFE1EAE7012000F06C
:100D60005FFC1FE040F28041C4F242210020086095
:100D7000FFF7B0FB0390FFE741F22400C4F202004A
:100D80000068800700280CD5FFE7FFF7A3FB039955
:100D9000401A032804D3FFE703208DF817009CE1D5
:100DA000EAE7FFE7FFE7049800784007002840F1F2
:100DB000D880FFE700208DF8070041F21C00C4F244
:100DC00002000068C000002813D4FFE7FFE741F2EB
:100DD0001C00C4F20200016841F08051016000680B
:100DE00000F0805000900098FFE701208DF8070088
:100DF000FFE747F20000C4F200000068C0050028C9
:100E000022D4FFE747F20001C4F20001086840F471
:100E100080700860FFF75EFB0390FFE747F2000079
:100E2000C4F200000068C00500280CD4FFE7FFF7FB
:100E300051FB0399401A652804D3FFE703208DF87E
:100E400017004AE1EAE7FFE7FFE70498C0680128D6
:100E500009D1FFE741F22001C4F20201086840F025
:100E60000100086031E00498C06868B9FFE741F20A
:100E70002001C4F20201086820F00100086008683F
:100E800020F0040008601FE00498C06805280DD118
:100E9000FFE741F22001C4F20201086840F00400BB
:100EA0000860086840F0010008600CE041F2200191
:100EB000C4F20201086820F001000860086820F010
:100EC00004000860FFE7FFE7FFE7FFE70498C0685A
:100ED000E0B1FFE7FFF7FEFA0390FFE741F22000E1
:100EE000C4F202000068800700280ED4FFE7FFF775
:100EF000F1FA0399401A41F28931884204D3FFE79D
:100F000003208DF81700E8E0E8E71BE0FFF7E2FABE
:100F10000390FFE741F22000C4F20200006880075E
:100F200000280ED5FFE7FFF7D5FA0399401A41F2E2
:100F30008931884204D3FFE703208DF81700CCE005
:100F4000E8E7FFE79DF80700012809D1FFE741F234
:100F50001C01C4F20201086820F080500860FFE71D
:100F6000FFE70498C069002800F0B380FFE741F272
:100F70000400C4F20200006800F00C00082800F031
:100F80008280FFE70498C06902285CD1FFE76021F6
:100F9000C4F2422100200860FFF79CFA0390FFE7AB
:100FA00041F20000C4F202000068800100280CD564
:100FB000FFE7FFF78FFA0399401A032804D3FFE7EE
:100FC00003208DF8170088E0EAE70498006AB0F57E
:100FD000803F0CD1FFE741F20401C4F2020108682E
:100FE00020F40030049A926810430860FFE741F251
:100FF0000401C4F20201086820F47410049B1A6A08
:101000005B6A1A43104308606021C4F24221012048
:101010000860FFF75FFA0390FFE741F20000C4F2B7
:1010200002000068800100280CD4FFE7FFF752FAA5
:101030000399401A032804D3FFE703208DF8170013
:101040004BE0EAE71EE06021C4F242210020086084
:10105000FFF740FA0390FFE741F20000C4F20200FC
:101060000068800100280CD5FFE7FFF733FA0399E9
:10107000401A032804D3FFE703208DF817002CE063
:10108000EAE7FFE724E00498C069012804D1FFE7FC
:1010900001208DF8170020E041F20400C4F20200A4
:1010A00000680290029800F480300499096A88422E
:1010B00008D1FFE7029800F470100499496A884249
:1010C00004D0FFE701208DF8170006E0FFE7FFE7F7
:1010D000FFE700208DF81700FFE79DF8170006B026
:1010E00080BD000081B0009001B0704781B00090D9
:1010F00001B0704780B582B00090009820B9FFE73A
:1011000001208DF807003FE0009890F83D0040B9BD
:10111000FFE70099002081F83C00009800F038F8C3
:10112000FFE70099022081F83D00009951F8040B77
:1011300000F0D8FA0099012081F84600FFE70099F5
:10114000012081F83E00009981F83F00009981F864
:101150004000009981F84100FFE7FFE70099012076
:1011600081F84200009981F84300009981F8440019
:10117000009981F84500FFE70099012081F83D00C2
:1011800000208DF80700FFE79DF8070002B080BD42
:1011900081B0009001B0704783B00190019890F841
:1011A0003D00012804D0FFE701208DF80B0047E047
:1011B0000199022081F83D0001980168C86840F05B
:1011C0000100C8600198006842F60041C4F20101C4
:1011D000884218D0FFE701980068B0F1804F12D024
:1011E000FFE70198006840F20041C4F20001884224
:1011F00009D0FFE70198006840F60001C4F2000141
:10120000884212D1FFE701980068806800F007006B
:1012100000900098062807D0FFE701980168086849
:1012200040F001000860FFE706E0019801680868E7
:1012300040F001000860FFE700208DF80B00FFE799
:101240009DF80B0003B0704781B0009001B070476B
:1012500080B582B0019001980068006900F0020139
:101260000020B0EB510F28D0FFE701980068C0685C
:1012700000F002010020B0EB510F1DD0FFE70198F4
:1012800001686FF002000861019901200877019858
:1012900000688069800720B1FFE70198FFF7D4FF5D
:1012A00006E0019800F012F9019800F013F9FFE749
:1012B000019900200877FFE7FFE7019800680069BF
:1012C00000F004010020B0EB910F29D0FFE7019856
:1012D0000068C06800F004010020B0EB910F1ED040
:1012E000FFE7019801686FF004000861019902208E
:1012F000087701980068806910F4407F04D0FFE708
:101300000198FFF7A1FF06E0019800F0DFF80198CF
:1013100000F0E0F8FFE7019900200877FFE7FFE71A
:1013200001980068006900F008010020B0EBD10FBF
:1013300028D0FFE701980068C06800F0080100208D
:10134000B0EBD10F1DD0FFE7019801686FF00800E6
:10135000086101990420087701980068C069800736
:1013600020B1FFE70198FFF76FFF06E0019800F05A
:10137000ADF8019800F0AEF8FFE70199002008777A
:10138000FFE7FFE701980068006900F01001002006
:10139000B0EB111F29D0FFE701980068C06800F08A
:1013A00010010020B0EB111F1ED0FFE7019801686B
:1013B0006FF0100008610199082008770198006813
:1013C000C06910F4407F04D0FFE70198FFF73CFFAD
:1013D00006E0019800F07AF8019800F07BF8FFE74A
:1013E000019900200877FFE7FFE70198006800698E
:1013F000C00780B1FFE701980068C068C00748B126
:10140000FFE7019801686FF001000861019800F0A2
:1014100065F8FFE7FFE7019800680069C1B20020A6
:10142000B0EBD11F13D0FFE701980068C068C1B2CC
:101430000020B0EBD11F09D0FFE7019801686FF0E1
:10144000800008610198FFF74DFEFFE7FFE7019874
:101450000068006900F040010020B0EB911F14D03B
:10146000FFE701980068C06800F040010020B0EB81
:10147000911F09D0FFE7019801686FF040000861F3
:10148000019800F03DF8FFE7FFE701980068006968
:1014900000F020010020B0EB511F14D0FFE70198AD
:1014A0000068C06800F020010020B0EB511F09D097
:1014B000FFE7019801686FF0200008610198FFF7CD
:1014C00015FEFFE7FFE702B080BD000081B000908D
:1014D00001B0704781B0009001B0704780B582B014
:1014E00001900198006840F60001C4F200018842B2
:1014F00003D1FFE7FEF7F4FFFFE702B080BD000075
:1015000081B0009001B07047FFE7FEE780B58AB078
:1015100000200990089007900690FFE741F218001C
:10152000C4F20200016841F010010160006800F09F
:10153000100005900598FFE7FFE741F21800C4F29C
:101540000200016841F020010160006800F0200005
:1015500004900498FFE7FFE741F21800C4F202008C
:10156000016841F004010160006800F0040003908C
:101570000398FFE741F20000C4F2010002904FF42B
:101580000051009100220192FEF78CFF009A019910
:10159000029806920122079208910221099106A958
:1015A000FEF7F0FD0AB080BDFFE7FEE7FFE7FEE7CC
:1015B00088B0079006910592079800F00700049004
:1015C0000498C0F10700052803D3FFE70420019029
:1015D00004E00498C0F107000190FFE70198039030
:1015E00004980430062803D8FFE70020009003E0A9
:1015F000049803380090FFE700980290069803993A
:10160000012202FA01F101390840029B9840059934
:101610009A40013A1140084308B0704770470000F3
:1016200082B00190019840F20001C2F20001096805
:10163000C90844F6D352C1F26202A1FB0221890912
:1016400048430090FFE700BFFFE70098411E00916C
:101650000028F8D1FFE702B0704700007047000093
:101660007047000080B590B006A800902821FEF7D2
:1016700060FD009800230593049303930293019364
:10168000012206924FF48031079108930A920222B8
:101690000D920E914FF4E0110F91FFF7E5F918B19B
:1016A000FFE7FEF767FDFFE70F200190022102919F
:1016B000002003904FF480620492059001A8FFF788
:1016C00007F818B1FFE7FEF755FDFFE710B080BD42
:1016D0007047000080B540F21000C2F20000FFF732
:1016E000B7FD80BD83B00290019102980068009020
:1016F000029842F60041C4F20101884215D0FFE78A
:101700000298B0F1804F10D0FFE7029840F20041FC
:10171000C4F20001884208D0FFE7029840F60001B9
:10172000C4F2000188420AD1FFE7009820F070005F
:10173000009001984168009808430090FFE70298E4
:1017400042F60041C4F20101884215D0FFE7029839
:10175000B0F1804F10D0FFE7029840F20041C4F290
:101760000001884208D0FFE7029840F60001C4F269
:10177000000188420AD1FFE7009820F440700090F1
:101780000198C168009808430090FFE7009820F096
:101790008000019949690843009000980299086007
:1017A000019880680299C86201980068029988626D
:1017B000029842F60041C4F20101884205D1FFE7D8
:1017C0000198006902990863FFE7029901204861C6
:1017D00003B07047FFE7FEE781B08DF803009DF985
:1017E000030000280ED4FFE79DF9031001F01F024B
:1017F000012090404A094EF20011CEF2000141F85A
:101800002200FFE701B070474EF60C50CEF2000008
:101810000068C0F30220704782B08DF80700009185
:101820009DF9070000280AD4FFE7009800019DF900
:1018300007104EF20042CEF2000288540BE00098EE
:1018400000019DF8071001F00F014EF61452CEF280
:1018500000028854FFE702B07047000083B0029096
:10186000029800F0070000904EF60C51CEF20001F5
:101870000868019001984FF6FF021040019001980E
:10188000009A40EA02200022C0F2FA52104301906E
:101890000198086003B0704780B582B000200190C5
:1018A000FEF72CFEFFF7DEFEFFF730FEFFE7FEE758
:1018B00002E008C8121F08C1002AFAD17047704719
:1018C000002001E001C1121F002AFBD17047000077
:1018D00000000000000001020304060708090000E0
:1018E00000000102030402030405060708090A0BAD
:1018F0000C0D0E0F10100102181900080000002036
:1019000010000000B018000828190008100000207E
:1019100050040000C01800080024F400010000007A
:081920001000000000000000AF
:04000005080000ED02
:00000001FF
